:020000040800F2
:1000000000280020DD100008251100082511000837
:100010002511000825110008251100080000000026
:100020000000000000000000000000002511000892
:100030002511000800000000251100082511000806
:1000400025110008251100082511000825110008B8
:1000500025110008251100082511000825110008A8
:100060002511000825110008251100082511000898
:100070002511000825110008251100082511000888
:100080002511000825110008251100082511000878
:100090002511000825110008251100082511000868
:1000A0000000000025110008251100082511000896
:1000B0002902000825110008251100082511000853
:1000C0002511000825110008251100082511000838
:1000D0002511000825110008251100082511000828
:1000E000251100082511000825110008D10200087B
:1000F00025110008000000000000000000000000C2
:1001000000000000000000000000000000000000EF
:1001100000000000000000000000000000000000DF
:1001200000000000000000000000000000000000CF
:1001300000000000000000005FF808F110B5054C59
:10014000237833B9044B13B10448AFF30080012383
:10015000237010BD780B002000000000401A00083A
:10016000084B10B51BB108490848AFF30080084898
:10017000036803B910BD074B002BFBD0BDE810404E
:10018000184700BF000000007C0B0020401A000848
:10019000740B00200000000080B483B000AF034661
:1001A000FB71084997F907305B09FA7902F01F02E1
:1001B000012000FA02F241F8232000BF0C37BD46AF
:1001C00080BC704700E100E080B500AF154A154BD8
:1001D0005B6A43F0010353624FF080424FF080436B
:1001E0001B6843F0800313604FF080424FF0804360
:1001F000DB6843F00103D3604FF080436422DA628E
:100200004FF0804343F67F629A621C20FFF7C4FFE1
:100210004FF080424FF080431B6843F001031360AE
:1002200000BF80BD0038024080B400AF174A174BB2
:100230005B6983F0800353614FF080424FF080434D
:100240001B6923F001031361114B1B680133104A32
:1002500013600F4B1B680A2B13D10D4B00221A6041
:100260000C4B1B6801330B4A13600A4B1B683B2B7A
:1002700007DD094B1B680133074A1360054B002259
:100280001A6000BFBD4680BC704700BF000402403A
:100290009C0B0020940B0020980B002080B400AF32
:1002A000094A094B5B6A43F010035362074A074B44
:1002B0001B6843F008031360044B0F229A6200BFCF
:1002C000BD4680BC704700BF0038024000100040AF
:1002D00080B400AF00BFBD4680BC704780B483B01F
:1002E00000AF78600C4A7B68D3620B4A0A4B5B69AB
:1002F00043F001035361084B1B69074B00221A614D
:10030000054A054B1B6843F00103136000BF0C371F
:10031000BD4680BC704700BF0010004080B400AFF5
:1003200000BF054B1B6903F00103002BF9D000BF90
:10033000BD4680BC704700BF0010004080B582B051
:1003400000AF78607868FFF7C9FFFFF7E7FF00BFED
:100350000837BD4680BD00BF80B400AF124B0422F9
:100360001A60114A104B1B6843F0010313600E4AD8
:100370000D4B1B6843F0020313600C4A0B4B1B68C8
:1003800043F00103136000BF084B1B6803F0020336
:10039000002BF9D0054A054B9B6843F0010393609D
:1003A00000BFBD4680BC7047003C024000380240A0
:1003B00080B500AF2D4B1B78012B03D0022B23D02F
:1003C000002B50E02A4A0021142000F053FB294B57
:1003D0001B78002B05D1284A0021712000F04AFB30
:1003E00008E0244B1B78012B04D1244A0021712002
:1003F00000F040FB224B1B781A460021782000F0C9
:100400007BFB00F04BF82EE01E4A0021142000F088
:1004100031FB1D4A0121002000F02CFB154B1B78FD
:10042000002B05D1194A0121552000F023FB08E0DB
:10043000104B1B78012B04D1154A0121552000F0E7
:1004400019FB144A0221002000F014FB0C4B1B780E
:100450001A460221552000F04FFB0F4A07210020C9
:1004600000F008FB00BF00BF80BD00BFDC0600201D
:10047000E0190008A00B0020EC190008F019000892
:10048000DD060020F4190008001A00080C1A000804
:10049000141A00081C1A00082C1A000880B582B033
:1004A00000AF0721002000F017FA00237B6015E061
:1004B0000E4A7B6813441B78002B03D00C4800F0D5
:1004C00085FA02E00B4800F081FA002000F0BAF84B
:1004D000002000F0B7F87B6801337B607B68042B59
:1004E000E6DD00BF0837BD4680BD00BFE006002046
:1004F000AC060020B406002080B500AF074B0422F4
:100500009A610120FFF71AFF044B4FF480229A6191
:100510000820FFF713FF00BF80BD00BF00080240A6
:1005200080B483B000AF0346FB71FB7903F0010395
:10053000002B04D0364B4FF400629A6103E0344B39
:100540004FF000629A61FB7903F00203002B04D0A4
:100550002F4B4FF480629A6103E02D4B4FF0806285
:100560009A61FB7903F00403002B04D0284B4FF46D
:1005700000729A6103E0264B4FF000729A61FB799A
:1005800003F00803002B04D0214B4FF480729A61D2
:1005900003E01F4B4FF080729A61FB7903F0100368
:1005A000002B04D01B4B4FF400729A6103E0194BEF
:1005B0004FF000729A61FB7903F02003002B04D006
:1005C000144B4FF480729A6103E0124B4FF080722B
:1005D0009A61FB7903F04003002B03D00D4B80227E
:1005E0009A6103E00B4B4FF400029A6197F90730D0
:1005F000002B03DA074B40229A6103E0054B4FF4CE
:1006000080029A6100BF0C37BD4680BC704700BFB6
:10061000000002400008024080B582B000AF0346EF
:10062000FB710120FFF78AFEFB791846FFF778FF80
:100630000120FFF783FEFFF75FFF00BF0837BD46CD
:1006400080BD00BF80B582B000AF0346FB710120C2
:10065000FFF774FEFB791846FFF762FF0120FFF7F2
:100660006DFE094B01229A610120FFF767FEFFF73B
:1006700043FF054B4FF480329A610120FFF75EFE85
:1006800000BF0837BD4680BD0008024080B586B077
:1006900000AF0123BB6001237B600023FB600323C9
:1006A0003B613B1D1946684800F06CFA0123BB60B2
:1006B00002237B600023FB6003233B613B1D194643
:1006C000624800F05FFA0123BB6004237B600023D3
:1006D000FB6003233B613B1D19465C4800F052FA66
:1006E0000123BB6004237B600023FB6003233B6189
:1006F0003B1D1946544800F045FA0123BB6008230E
:100700007B600023FB6003233B613B1D19464F4880
:1007100000F038FA0123BB6002237B600023FB60FA
:1007200003233B613B1D1946474800F02BFA012388
:10073000BB604FF400637B600023FB6003233B61DD
:100740003B1D1946414800F01DFA0123BB604FF4E0
:1007500080637B600023FB6003233B613B1D1946E4
:100760003A4800F00FFA0123BB604FF400737B603E
:100770000023FB6003233B613B1D1946334800F017
:1007800001FA0123BB604FF480737B600023FB60A0
:1007900003233B613B1D19462C4800F0F3F901236C
:1007A000BB604FF400737B600023FB6003233B615D
:1007B0003B1D1946244800F0E5F90123BB604FF4C6
:1007C00080737B600023FB6003233B613B1D194664
:1007D0001D4800F0D7F90123BB6080237B60002314
:1007E000FB6003233B613B1D1946174800F0CAF923
:1007F0000123BB6040237B600023FB6003233B613C
:100800003B1D1946104800F0BDF90F4B4FF4003264
:100810009A610D4B4FF480329A610C4B08229A6119
:100820000C20FFF78BFD094B4FF400229A61022048
:10083000FFF784FD054B08229A610C20FFF77EFD2F
:1008400000BF1837BD4680BD0008024000000240CE
:1008500080B582B000AF0346FB710121012000F09A
:100860008FF8FB7943F03E03DBB21846FFF7D4FE66
:100870000021002000F084F800BF0837BD4680BD8D
:1008800080B582B000AF0346FB71FB7943F04003B3
:10089000DBB21846FFF744FE0120FFF74FFDFFF7DC
:1008A0002BFE00BF0837BD4680BD00BF80B582B0BB
:1008B00000AF0346FB71FB7963F04703DBB21846D8
:1008C000FFF72EFE0120FFF739FDFFF715FE00BFF1
:1008D0000837BD4680BD00BF80B582B000AF03467B
:1008E0000A46FB711346BB71FB793F2B07D9FB7995
:1008F000403BFB710121002000F042F803E00021A1
:10090000012000F03DF8FB791846FFF7B9FFBB79ED
:100910001846FFF7CBFF00BF0837BD4680BD00BFBC
:1009200080B582B000AF0121012000F029F800233A
:10093000FB711AE0FB79483BDBB21846FFF76CFE0F
:100940000023BB710BE0BB794033DBB21846FFF7E5
:1009500063FE0020FFF776FEBB790133BB71BB79E4
:100960003F2BF0D9FB790133FB71FB79072BE1D9E0
:100970000021002000F004F800BF0837BD4680BD0C
:1009800080B483B000AF03460A46FB711346BB71C7
:10099000FB79002B03D00C4B02229A6103E00A4B37
:1009A0004FF400329A61BB79002B03D0064B04222E
:1009B0009A6103E0044B4FF480229A6100BF0C3728
:1009C000BD4680BC704700BF0000024080B584B0C7
:1009D00000AF78600023FB6009E0FB687A6813448D
:1009E0001B781846FFF72EFEFB680133FB60FB689F
:1009F000072BF2DD00BF1037BD4680BD80B584B047
:100A000000AF03463A60FB710B46BB71BA79FB79C4
:100A100011461846FFF760FF0023FB6022E0FA79D9
:100A2000FB681344BB60BB68402B07D1BB68DBB2DB
:100A3000BA7911461846FFF74FFF09E0BB68802BD3
:100A400006D1BB790133DBB219460020FFF744FF22
:100A5000FB683A6813441B781846FFF7F3FDFB6800
:100A60000133FB60FB68042BD9DD00BF1037BD46A6
:100A700080BD00BF80B584B000AF03463A60FB7113
:100A80000B46BB710023FB602AE0FB683A68134405
:100A90001B78FB72FB7A8F2B03D8FB7A203BFB720F
:100AA00002E0FB7A603BFB72FB79782B04D90023D0
:100AB000FB71BB790133BB71FA7A13469B00134477
:100AC0000C4A1A44B979FB791846FFF797FF0020C2
:100AD000FFF7B8FDFB790733FB71FB680133FB605F
:100AE000FB683A6813441B78002BCED100BF103747
:100AF000BD4680BDC016000880B584B000AF034677
:100B00003A60FB710B46BB713B68092B09D93B6806
:100B10001A4AA2FB0323DA08B979FB791846FFF7D2
:100B2000EBFF3B68FB600AE0FB790733FB71FB6876
:100B3000134A82FB03129210DB17D31AFB60FB6887
:100B4000092BF1DC39680D4BA3FB0123DA081346AE
:100B50009B0013445B00CA1AD3B23033DBB23B7242
:100B600000237B7207F10802B979FB791846FFF779
:100B700081FF00BF1037BD4680BD00BFCDCCCCCCBF
:100B80006766666680B487B000AF7860396000231E
:100B9000FB600023BB6000233B6100237B6157E1C6
:100BA00001227B6902FA03F3FB603B681A68FB6869
:100BB0001340BB60BA68FB689A4240F046813B68CC
:100BC0005B68022B03D03B685B68122B23D17B69E7
:100BD000DA087B68083253F822303B617B6903F006
:100BE00007039B000F2202FA03F3DB433A69134029
:100BF0003B613B681A697B6903F007039B0002FABB
:100C000003F33A6913433B617B69DA087B68083276
:100C1000396943F822107B681B683B617B695B0084
:100C2000032202FA03F3DB433A6913403B613B685A
:100C30005B6803F003027B695B0002FA03F33A6925
:100C400013433B617B683A691A603B685B68012B20
:100C50000BD03B685B68022B07D03B685B68112BAD
:100C600003D03B685B68122B30D17B689B683B618B
:100C70007B695B00032202FA03F3DB433A6913400A
:100C80003B613B68DA687B695B0002FA03F33A690F
:100C900013433B617B683A699A607B685B683B61A0
:100CA00001227B6902FA03F3DB433A6913403B619B
:100CB0003B685B681B0903F001027B6902FA03F3DE
:100CC0003A6913433B617B683A695A607B68DB6829
:100CD0003B617B695B00032202FA03F3DB433A6961
:100CE00013403B613B689A687B695B0002FA03F33F
:100CF0003A6913433B617B683A69DA603B685B6839
:100D000003F08053002B00F0A080564A554B1B6A1D
:100D100043F001031362544A7B699B08023352F883
:100D200023303B617B6903F003039B000F2202FA2F
:100D300003F3DB433A6913403B617B684B4A9342C0
:100D40001FD07B684A4A934219D07B68494A934234
:100D500013D07B68484A93420DD07B68474A934240
:100D600007D07B68464A934201D107230AE0082353
:100D700008E0042306E0032304E0022302E0012349
:100D800000E000237A6902F00302920093403A697E
:100D900013433B6134497B699B0802333A6941F84C
:100DA0002320384B1B683B61BB68DB433A69134027
:100DB0003B613B685B6803F48033002B03D03A69E6
:100DC000BB6813433B612F4A3B6913602D4B5B6843
:100DD0003B61BB68DB433A6913403B613B685B683E
:100DE00003F40033002B03D03A69BB6813433B6123
:100DF000244A3B695360234B9B683B61BB68DB43E0
:100E00003A6913403B613B685B6803F48013002B35
:100E100003D03A69BB6813433B611A4A3B6993604C
:100E2000184BDB683B61BB68DB433A6913403B61AD
:100E30003B685B6803F40013002B03D03A69BB687E
:100E400013433B610F4A3B69D3607B6901337B618C
:100E50007B690F2B7FF6A4AE00BF1C37BD4680BC5C
:100E6000704700BF0038024000000140000002400F
:100E70000004024000080240000C02400010024042
:100E8000001402400004014080B487B000AF7860D5
:100E9000396000233B610023FB600023BB6000231B
:100EA0007B6182E001227B6902FA03F33B613A68CD
:100EB0003B691340FB60FA683B699A4272D17B68D8
:100EC0001A687B695B00032101FA03F3DB431A40D4
:100ED0007B681A607B69DA087B69D9087B6808310E
:100EE00053F821107B6903F007039B000F2000FAE1
:100EF00003F3DB4319407B68083243F822107B6818
:100F00009A687B695B00032101FA03F3DB431A4013
:100F10007B689A607B685A6801217B6901FA03F358
:100F2000DB431A407B685A607B68DA687B695B0048
:100F3000032101FA03F3DB431A407B68DA607B6923
:100F400003F003039B000F2202FA03F3BB601B486C
:100F50007B699B0819497A699208023251F822107C
:100F6000BA68D2430A40023340F823201449144B94
:100F70001A68FB68DB4313400B601149104B5A6839
:100F8000FB68DB4313404B600D490D4B9A68FB68CF
:100F9000DB4313408B600A49094BDA68FB68DB438B
:100FA0001340CB607B6901337B617B690F2B7FF63C
:100FB00079AF00BF1C37BD4680BC704700000140C0
:100FC0000004014080B485B000AF78600B467B80A0
:100FD0007B681A697B881340002B02D00123FB73C6
:100FE00001E00023FB73FB7B18461437BD4680BC31
:100FF000704700BF80B483B000AF78600B467B8041
:1010000013467B707B78002B03D07A887B689A61CB
:1010100003E07B881A047B689A6100BF0C37BD46E9
:1010200080BC704780B483B000AF78600B467B8093
:101030007B685A697B885A407B685A6100BF0C37CD
:10104000BD4680BC704700BF80B485B000AF7860FB
:101050000B467B804FF48033FB607A88FB68134338
:10106000FB60FA687B68DA617A887B68DA61FA6823
:101070007B68DA617B68DB69FB607B68DB6903F4B2
:101080008033002B01D0002300E0012318461437E1
:10109000BD4680BC704700BF80B582B000AF03463C
:1010A000FB80084B5A69FB881340002B06D0054A89
:1010B000FB885361FB88184600F006F800BF08372C
:1010C000BD4680BD0004014080B483B000AF03463C
:1010D000FB8000BF0C37BD4680BC7047002103E099
:1010E0000B4B5B58435004310A480B4B42189A4251
:1010F000F6D30A4A02E0002342F8043B084B9A4226
:10110000F9D300F011F800F031FA00F0EDF8704773
:10111000401A000800000020780B0020780B002007
:10112000A40B0020FEE7000080B400AF154A154B69
:101130001B6843F4807313601249124B9A68124B78
:1011400013408B600F4A0F4B1B6823F0885323F02A
:10115000011313600B4A0B4B1B6823F480231360AD
:10116000084A084B9B6823F47D039360054B0022DB
:10117000DA60064B4FF000629A6000BFBD4680BC4B
:10118000704700BF003802400CC0FF8800ED00E04F
:1011900080B487B000AF00237B6100233B61002354
:1011A000FB600023BB6000237B60494B9B6803F01E
:1011B0000C037B617B690C2B64D801A252F823F0ED
:1011C000F511000885120008851200088512000834
:1011D0001512000885120008851200088512000803
:1011E0001D120008851200088512000885120008EB
:1011F00025120008364B5B6803F460435B0B7B6091
:101200007B6801334FF4004202FA03F31A46314B74
:101210001A6047E02F4B304A1A6043E02D4B2F4AAB
:101220001A603FE02A4B9B6803F470133B61284B24
:101230009B6803F44003FB603B699B0C284AD35C2A
:10124000DBB23B61FB689B0D0133FB60204B9B686D
:1012500003F48033BB60BB68002B09D13B691E4A95
:1012600002FB03F2FB68B2FBF3F31A4A136019E0C6
:101270003B691A4A02FB03F2FB68B2FBF3F3154A1F
:1012800013600FE0124B5B6803F460435B0B7B6001
:101290007B6801334FF4004202FA03F31A460D4B08
:1012A0001A6000BF0A4B9B6803F0F0031B090D4A4C
:1012B000D35CDBB27B61074B1A687B6922FA03F3CC
:1012C000044A136000BF1C37BD4680BC704700BF96
:1012D00000380240BC0600200024F40000127A000E
:1012E000C0060020CC06002080B500AFFFF734F820
:1012F000FEF7D4FFFEF768FF00F01EF900F018F8C3
:101300006420FFF71BF8FFF7C1F94FF47A70FFF77D
:1013100015F80120FFF79CFAFFF702FB00210120DE
:10132000FFF72EFBFFF744F800F056F8FAE700BF8E
:1013300080B586B000AF00237B6122E001237B6093
:10134000234A7B69DB0013449B883B600023BB601E
:101350000323FB601E4A7B6952F833303A4611463C
:101360001846FFF70FFC1A4A7B6952F833201849D8
:101370007B69DB000B449B881B0493617B69013311
:101380007B617B69032BD9DD00237B6119E000239E
:101390003B6100237B600223BB600E4A7B69DB005C
:1013A00013449B883B600323FB600A4A7B6952F825
:1013B00033303A4611461846FFF7E4FB7B690133A8
:1013C0007B617B69032BE2DD00BF1837BD4680BD22
:1013D000E80600200807002080B582B000AF00F0CA
:1013E00055F80346FB71254B1B78FA799A4240D099
:1013F000224AFB791370FB79FF2B3AD0204B1B78E4
:10140000012B03D0022B0AD0002B32E0FB792A2BD0
:101410002CD1FFF785FA1A4B02221A7026E0FB79CD
:10142000412B0CD1174B1B780133DAB2154B1A70D4
:10143000144B1B78022B02D1124B00221A70FB793D
:10144000422B0AD1104B1B78052B03D10E4B0822DF
:101450001A7002E00C4B05221A70FB792A2B07D177
:10146000FFF75EFA064B01221A7001E000BF00E0B0
:1014700000BF00BF0837BD4680BD00BF3807002051
:10148000DC060020A00B0020DD06002080B483B025
:1014900000AF00237B6040E0244A7B6852F8332091
:1014A00022497B68DB000B449B88936100233B60EF
:1014B00022E01F4A3B6852F833301A691C493B68E6
:1014C000DB000B449B881340002B12D0174A7B682B
:1014D00052F8332015497B68DB000B449B881B04C2
:1014E0009361144A7B689B001A443B6813441B7841
:1014F00017E03B6801333B603B68032BD9DD0B4AA7
:101500007B6852F8332009497B68DB000B449B88D9
:101510001B0493617B6801337B607B68032BBBDD1D
:10152000FF2318460C37BD4680BC7047E8060020F4
:10153000080700202807002080B400AF0A4A0A4BA1
:10154000DB6943F00103D361074A074BDB6943F0D2
:101550000203D361044A044BDB6943F00403D36103
:1015600000BFBD4680BC70470038024070B50F4ECA
:101570000F4D761BB61018BF002405D0013455F866
:10158000043B9847A642F9D10A4E0B4D00F08CF867
:10159000761BB61018BF002406D0013455F8043B62
:1015A0009847A642F9D170BD70BD00BF680B0020FE
:1015B000680B0020700B0020680B0020024B13B159
:1015C000024800F005B8704700000000DD15000873
:1015D000002301461A46184600F014B838B5074DE6
:1015E000074C2C1BA41005D0013C55F8043D98472E
:1015F000002CF9D1BDE8384000F05CB8740B002035
:10160000700B00202DE9F047254C064625688846DA
:10161000D5F8484192469946C4B360681F2817DC44
:10162000411C76B104EB8003C3F888A0D4F888513C
:10163000012282401543022EC4F88851C3F8089154
:101640001ED0831C6160002044F82380BDE8F08731
:10165000144B03B34FF4C870AFF300800446D0B10D
:10166000D5F84831002784E888003846C5F8484155
:101670000121C4F88871C4F88C71002EE1D0D1E743
:10168000D4F88C311A43C4F88C21DAE705F5A67436
:10169000C5F84841C1E74FF0FF30BDE8F08700BF13
:1016A0003C1A000800000000F8B500BFF8BC08BCF8
:1016B0009E467047F8B500BFF8BC08BC9E46704710
:1016C000000000000000004F0000000700070014A9
:1016D0007F147F14242A7F2A122313086462364958
:1016E0005522400005030000001C22410000412259
:1016F0001C0014083E081408083E0808005030007A
:1017000000080808080800606000002010080402B3
:101710003E5149453E00427F4000426151494621C9
:1017200041454B311814127F1027454545393C4A35
:101730004949300171090503364949493606494985
:10174000291E0036360000005636000008142241DB
:101750000014141414140041221408020151090643
:10176000324971413E7E1111117E7F494949363E11
:10177000414141227F4141221C7F494949417F0922
:101780000909013E4149493A7F0808087F00417F25
:1017900041002040413F017F081422417F404040EA
:1017A000407F020C027F7F0408107F3E4141413E92
:1017B0007F090909063E4151215E7F0919294646E4
:1017C0004949493101017F01013F4040403F1F200D
:1017D00040201F3F4070403F6314081463070870A7
:1017E00008076151494543007F4141000204081048
:1017F000200041417F00040201020440404040407B
:10180000000102040020545454787F48444438387E
:1018100044444420384444487F3854545418087E83
:101820000901020C5252523E7F0804047800447DA4
:1018300040002040443D007F1028440000417F408C
:10184000007C041804787C08040478384444443844
:101850007C14141408081414187C7C080404084828
:1018600054545420043F4440203C4040207C1C20E1
:1018700040201C3C4030403C44281028440C505030
:10188000503C4464544C44000836410000007F0042
:1018900000004136080002010202010000000000C1
:1018A0007E1111117E7F494949337F494949367F6D
:1018B00001010103E0514F41FF7F49494941770848
:1018C0007F087741494949367F1008047F7C2112FF
:1018D000097C7F0814224120413F017F7F020C02D6
:1018E0007F7F0808087F3E4141413E7F0101017F23
:1018F0007F090909063E4141412201017F0101475B
:10190000281008071C227F221C63140814637F40E0
:101910004040FF070808087F7F407F407F7F407F6F
:1019200040FF017F4848307F4830007F007F4848B3
:1019300030224149493E7F083E413E462919097FF0
:1019400020545454783C4A4A49317C545428007CF1
:101950000404040CE0544C44FC38545454186C10E7
:101960007C106C44445454287C2010087C7C412218
:10197000117C7C1028440020443C047C7C08100826
:101980007C7C1010107C38444444387C0404047C73
:101990007C14141408384444440004047C04040CEB
:1019A0005050503C3048FC483044281028447C407B
:1019B0004040FC0C1010107C7C407C407C7C407CC7
:1019C00040FC047C5050207C5050207C7C505020A7
:1019D0000028445454387C10384438085434147C5B
:1019E000CEF1EDEEE2EDE0FF3A000000C0000000B5
:1019F000D0000000CDE0F1F2F0EEE9EAE83A0000B4
:101A0000413AD0E5E6E8EC202D200000C0E2F2EEFD
:101A1000EC2E0000D0F3F7EDEEE90000423AC2FBF5
:101A2000F1F2F0E5EBEEE22D200000002A202D205F
:101A3000CFF0E8EDFFF2FC0043000000400700207B
:101A4000001C343C60C080000000C0E0E0C000002A
:101A500000E0E0C000000080C06030183870C08036
:101A60000000000000000000000000000000000076
:101A7000C0E0E0C0000000C0E0783C3C180000007E
:101A80000000000000000103868C183161C3878EBE
:101A90001C71D171030683C16030180C1C3870E1D1
:101AA000C3860C18F0F060000080C06030180E870C
:101AB000C36131180C0603010000000000000000A3
:101AC000000000000000000387C76F38100307877D
:101AD000C370381C0E07018000B0E0E0E0E0F000C9
:101AE0008387070710386CC6830138283C0683C1FA
:101AF00060301E0A0E000000000000000000000020
:101B00000000E0F0B80C060341E0B0180C06030139
:101B1000000030F0F67E3C7FFFFFFFFDF8712307E9
:101B20000F1C3CF6E0F0808081030E1C3870E1C38E
:101B3000860C183060C0800000000000000000002B
:101B40000000000103070C183060C183060C3870D8
:101B5000E0C08603131F0EFC78F1E3C1881C3E7FB2
:101B6000FFFEFCF879FF0F1F10000080C0603019E5
:101B70000F0680C06030190F060000000000000052
:101B8000000000000000000000000001030E3C3CCB
:101B90001881C3663C180080C083030B1F0F0E0F13
:101BA0001F0B030380C060301C0E07C3E170180CCC
:101BB000C6E3E1C0000000000000000000000000DB
:101BC00000000000000000000080C0E070180C065B
:101BD0000371F070180E0763F1F183060C38703052
:101BE000180C0683F1F0700E0A1E3860C183861C43
:101BF0003871E1C3060C3870F0600000000000008E
:101C0000000000003828381E070301000000000013
:101C1000000000000000000000000103060C18187E
:101C20000C0603010000000000000000000307078D
:101C30000200000103061C383838000000000000D4
:101C40000000000000000000000000000000000094
:101C50000000000000000000000000000000008004
:101C600080000000000000000000000000000000F4
:101C7000000080C0800000000000000000000000A4
:101C80000000000000000000000006060C18306094
:101C9000C080000000008080C06030188CC66331B6
:101CA000193362C488103060309898C0603018CC06
:101CB0006663010100000000000000000000000059
:101CC0000000000000000000000000000000C4CE82
:101CD000CE1933E6C40913198CC6623198CE4E2052
:101CE000109CCE64313366CC8913214ECE873138B7
:101CF0004E8E800000000000000000000000000088
:101D000000000000000000000000081C3663C9DC71
:101D10008C0673D98C042271D88C062371D8CC76AA
:101D2000732180C06030188C27733098CC672310E3
:101D3000080C070300000000000000000000000085
:101D4000000000000000000000000000606070194A
:101D50008DC66630993162C48C193366CC8888C4CC
:101D60006633198C464299193B62C489113060C0B0
:101D70008080000000000000000000000000000063
:101D80000000000000000000000030380804123994
:101D9000390C060303010000010306040811190CA5
:101DA0000602010000000003070200010306040808
:101DB0001331E0C0400000000000000000000000FF
:101DC00020F0103030300000800000008000808063
:101DD0008080808000800000008000008080808003
:101DE000800000800080808080000000F0F0000013
:101DF00000000000008000000080808080800000E3
:101E0000007F0006060200007F4040407F00010185
:101E10007F7F01003E7F4000407F00007F000D3D3E
:101E20006F43007F404D4D4D410000007F7F40409B
:101E3000404000783E331F78407F7F4D4D7F7B00D0
:101E4000C0CEF1F1514EE0E0E0C040404040000023
:101E5000F8FF0FF9F901010000007C82827C00008C
:101E6000000084FE800000000000E492928C0000DC
:101E700000008292926C000000001E1010FE000014
:101E800000009E929262000000007C92926200002C
:101E90000002C222120E000000006C92926C000040
:101EA00000008C92927C000000F008040202020202
:101EB000020202020408F00000F0F8FCFEFEFEFE42
:101EC000FEFEFEFEFCF8F000000F102040404040F7
:101ED0004040404020100F00000F1F3F7F7F7F7F5A
:101EE0007F7F7F7F3F1F0F0090A0E0303639392E73
:101EF000283C1C1C18080808000000000000000016
:101F000000000000000000000000000000000000D1
:101F100000000000000000000000000000000000C1
:101F200000000000000000000000000000000000B1
:101F300000000000000000000000000000000000A1
:101F40000000000000000000000000000000000091
:101F50000000000000000000000000000000000081
:101F60000000000000000000000000000000000071
:101F70000000000000000000000000000000000061
:101F80000000000000000000000000000000000051
:101F90000000000000000000000000000000000041
:101FA00000000000000000147F147F1400000000F7
:101FB0000000000000000000000000000000000021
:101FC00000000000000000000000082A1C2A080091
:101FD0000000000000000000000000000000000001
:101FE00000000000000000003E5149453E00427FD5
:101FF000400042615149462141454B311814127F3E
:102000001027454545393C4A4949300171090503C6
:102010003649494936064949291E0000000000009A
:1020200000000000000000000000000000000000B0
:10203000000000000000000000000000007E111100
:10204000117E7F494949363E414141227F4141222B
:102050001C00000000000000000000000000000064
:102060000000000000000000000000000000000070
:102070000000000000000000000000000000000060
:102080000000000000000000000000000000000050
:102090000000000000000000000000000000000040
:1020A0000000000000000000000000000000000030
:1020B0000000000000000000000000000000000020
:1020C0000000000000000000000000000000000010
:1020D0000000000000000000000000000000000000
:1020E0000000000000000000000000003C7EFFFF38
:1020F000FFFF7E3C3C4281818181423C0048E801F7
:10210000030406080C101820300000000000000036
:102110000000000001020304060708090105000091
:10212000000100000100000000000240200000004B
:10213000000402400400000000040240000400000B
:1021400000040240000800000004024000100000EB
:102150000004024000200000000402400040000093
:1021600000040240008000003132334134353642F1
:10217000373839432A302344FF00000000000000B4
:10218000000000002C0A0020940A0020FC0A002015
:10219000000000000000000000000000000000003F
:1021A000000000000000000000000000000000002F
:1021B00000000000381A00080000000000000000C5
:1021C000000000000000000000000000000000000F
:1021D00000000000000000000000000000000000FF
:1021E00000000000000000000000000000000000EF
:1021F00000000000000000000000000000000000DF
:1022000000000000000000000000000000000000CE
:1022100000000000000000000000000000000000BE
:1022200000000000000000000100000000000000AD
:102230000E33CDAB34126DE6ECDE05000B00000072
:10224000000000000000000000000000000000008E
:10225000000000000000000000000000000000007E
:10226000000000000000000000000000000000006E
:10227000000000000000000000000000000000005E
:1025A0000000000000000000BD15000861010008E7
:0825B0003D01000800000000DD
:0400000508000000EF
:00000001FF
