:020000040800F2
:1000000000280020D50C00081D0D00081D0D00085B
:100010001D0D00081D0D00081D0D0008000000004A
:100020000000000000000000000000001D0D00089E
:100030001D0D0008000000001D0D00081D0D00082A
:100040001D0D00081D0D00081D0D00081D0D0008E8
:100050001D0D00081D0D00081D0D00081D0D0008D8
:100060001D0D00081D0D00081D0D00081D0D0008C8
:100070001D0D00081D0D00081D0D00081D0D0008B8
:100080001D0D00081D0D00081D0D00081D0D0008A8
:100090001D0D00081D0D00081D0D00081D0D000898
:1000A000000000001D0D00081D0D00081D0D0008BA
:1000B0001D0D00081D0D00081D0D00081D0D000878
:1000C0001D0D00081D0D00081D0D00081D0D000868
:1000D0001D0D00081D0D00081D0D00081D0D000858
:1000E0001D0D00081D0D00081D0D0008CD010008A4
:1000F0001D0D0008000000000000000000000000CE
:1001000000000000000000000000000000000000EF
:1001100000000000000000000000000000000000DF
:1001200000000000000000000000000000000000CF
:1001300000000000000000005FF808F110B5054C59
:10014000237833B9044B13B10448AFF30080012383
:10015000237010BD80040020000000006C11000816
:10016000084B10B51BB108490848AFF30080084898
:10017000036803B910BD074B002BFBD0BDE810404E
:10018000184700BF00000000840400206C11000824
:100190007C0400200000000080B400AF094A094B35
:1001A0005B6A43F010035362074A074B1B6843F036
:1001B00008031360044B0F229A6200BFBD4680BC47
:1001C000704700BF003802400010004080B400AF0C
:1001D00000BFBD4680BC704780B483B000AF78607C
:1001E0000C4A7B68D3620B4A0A4B5B6943F00103FC
:1001F0005361084B1B69074B00221A61054A054BE6
:100200001B6843F00103136000BF0C37BD4680BC80
:10021000704700BF0010004080B400AF00BF054B26
:100220001B6903F00103002BF9D000BFBD4680BC61
:10023000704700BF0010004080B582B000AF78600A
:100240007868FFF7C9FFFFF7E7FF00BF0837BD4633
:1002500080BD00BF80B400AF124B04221A60114A67
:10026000104B1B6843F0010313600E4A0D4B1B68D3
:1002700043F0020313600C4A0B4B1B6843F001036D
:10028000136000BF084B1B6803F00203002BF9D07A
:10029000054A054B9B6843F00103936000BFBD46D0
:1002A00080BC7047003C02400038024080B500AF7F
:1002B000074B04229A610120FFF7BEFF044B4FF465
:1002C00080229A610820FFF7B7FF00BF80BD00BF02
:1002D0000008024080B483B000AF0346FB71FB7995
:1002E00003F00103002B04D0364B4FF400629A61F7
:1002F00003E0344B4FF000629A61FB7903F0020394
:10030000002B04D02F4B4FF480629A6103E02D4BF9
:100310004FF080629A61FB7903F00403002B04D054
:10032000284B4FF400729A6103E0264B4FF00072A5
:100330009A61FB7903F00803002B04D0214B4FF4A2
:1003400080729A6103E01F4B4FF080729A61FB79D3
:1003500003F01003002B04D01B4B4FF400729A6182
:1003600003E0194B4FF000729A61FB7903F0200310
:10037000002B04D0144B4FF480729A6103E0124BAF
:100380004FF080729A61FB7903F04003002B03D099
:100390000D4B80229A6103E00B4B4FF400029A61EF
:1003A00097F90730002B03DA074B40229A6103E0EC
:1003B000054B4FF480029A6100BF0C37BD4680BCEC
:1003C000704700BF000002400008024080B582B0C4
:1003D00000AF0346FB710120FFF72EFFFB791846A3
:1003E000FFF778FF0120FFF727FFFFF75FFF00BF50
:1003F0000837BD4680BD00BF80B582B000AF034660
:10040000FB710120FFF718FFFB791846FFF762FF29
:100410000120FFF711FF094B01229A610120FFF72C
:100420000BFFFFF743FF054B4FF480329A61012029
:10043000FFF702FF00BF0837BD4680BD000802403D
:1004400080B586B000AF0123BB6001237B60002331
:10045000FB6003233B613B1D19466B4800F08EF99E
:100460000123BB604FF400537B600023FB60032338
:100470003B613B1D1946654800F080F90123BB60D4
:100480004FF480437B600023FB6003233B613B1DF3
:1004900019465E4800F072F90123BB6004237B60BB
:1004A0000023FB6003233B613B1D1946564800F0C7
:1004B00065F90123BB604FF400437B600023FB60C0
:1004C00003233B613B1D1946504800F057F90123B7
:1004D000BB6002237B600023FB6003233B613B1D69
:1004E0001946494800F04AF90123BB604FF4006304
:1004F0007B600023FB6003233B613B1D194644489E
:1005000000F03CF90123BB604FF480637B60002363
:10051000FB6003233B613B1D19463D4800F02EF96B
:100520000123BB604FF400737B600023FB60032357
:100530003B613B1D1946364800F020F90123BB60A2
:100540004FF480737B600023FB6003233B613B1D02
:1005500019462F4800F012F90123BB604FF40073D5
:100560007B600023FB6003233B613B1D194626484B
:1005700000F004F90123BB604FF480737B6000231B
:10058000FB6003233B613B1D19461F4800F0F6F852
:100590000123BB6080237B600023FB6003233B615E
:1005A0003B1D1946184800F0E9F80123BB604023C1
:1005B0007B600023FB6003233B613B1D194612480F
:1005C00000F0DCF8104B4FF400329A610E4B4FF400
:1005D00080329A610D4B4FF400429A610C20FFF774
:1005E0002BFE0A4B4FF000429A610220FFF724FED7
:1005F000064B4FF400429A610C20FFF71DFE00BF2E
:100600001837BD4680BD00BF00080240000402400C
:100610000000024080B582B000AF0346FB710121AB
:10062000012000F06BF8FB7943F03E03DBB2184683
:10063000FFF7CCFE0021002000F060F800BF083773
:10064000BD4680BD80B582B000AF0346FB71FB792B
:1006500043F04003DBB21846FFF73CFE0120FFF7F2
:10066000EBFDFFF723FE00BF0837BD4680BD00BF8E
:1006700080B582B000AF0346FB71FB7963F047039E
:10068000DBB21846FFF726FE0120FFF7D5FDFFF786
:100690000DFE00BF0837BD4680BD00BF80B582B0EB
:1006A00000AF0121012000F029F80023FB711AE0BE
:1006B000FB79483BDBB21846FFF788FE0023BB718D
:1006C0000BE0BB794033DBB21846FFF77FFE00201A
:1006D000FFF792FEBB790133BB71BB793F2BF0D999
:1006E000FB790133FB71FB79072BE1D90021002055
:1006F00000F004F800BF0837BD4680BD80B483B069
:1007000000AF03460A46FB711346BB71FB79002B11
:1007100004D00D4B4FF400529A6103E00A4B4FF0A6
:1007200000529A61BB79002B04D0074B4FF48042F2
:100730009A6103E0044B4FF080429A6100BF0C378E
:10074000BD4680BC704700BF0004024080B584B045
:1007500000AF78600023FB6009E0FB687A6813440F
:100760001B781846FFF748FEFB680133FB60FB6807
:10077000072BF2DD00BF1037BD4680BD80B487B0C7
:1007800000AF786039600023FB600023BB6000236A
:100790003B6100237B6157E101227B6902FA03F38D
:1007A000FB603B681A68FB681340BB60BA68FB6873
:1007B0009A4240F046813B685B68022B03D03B685D
:1007C0005B68122B23D17B69DA087B68083253F807
:1007D00022303B617B6903F007039B000F2202FA82
:1007E00003F3DB433A6913403B613B681A697B6959
:1007F00003F007039B0002FA03F33A6913433B61DA
:100800007B69DA087B680832396943F822107B6813
:100810001B683B617B695B00032202FA03F3DB4345
:100820003A6913403B613B685B6803F003027B69F4
:100830005B0002FA03F33A6913433B617B683A6950
:100840001A603B685B68012B0BD03B685B68022B2E
:1008500007D03B685B68112B03D03B685B68122BA9
:1008600030D17B689B683B617B695B00032202FAA5
:1008700003F3DB433A6913403B613B68DA687B6909
:100880005B0002FA03F33A6913433B617B683A6900
:100890009A607B685B683B6101227B6902FA03F323
:1008A000DB433A6913403B613B685B681B0903F01B
:1008B00001027B6902FA03F33A6913433B617B68E7
:1008C0003A695A607B68DB683B617B695B000322A5
:1008D00002FA03F3DB433A6913403B613B689A68D1
:1008E0007B695B0002FA03F33A6913433B617B685F
:1008F0003A69DA603B685B6803F08053002B00F0D4
:10090000A080564A554B1B6A43F001031362544AB8
:100910007B699B08023352F823303B617B6903F00B
:1009200003039B000F2202FA03F3DB433A691340EF
:100930003B617B684B4A93421FD07B684A4A934293
:1009400019D07B68494A934213D07B68484A934246
:100950000DD07B68474A934207D07B68464A934252
:1009600001D107230AE0082308E0042306E003235B
:1009700004E0022302E0012300E000237A6902F090
:100980000302920093403A6913433B6134497B6907
:100990009B0802333A6941F82320384B1B683B61BE
:1009A000BB68DB433A6913403B613B685B6803F417
:1009B0008033002B03D03A69BB6813433B612F4A55
:1009C0003B6913602D4B5B683B61BB68DB433A6955
:1009D00013403B613B685B6803F40033002B03D09A
:1009E0003A69BB6813433B61244A3B695360234B1C
:1009F0009B683B61BB68DB433A6913403B613B68E2
:100A00005B6803F48013002B03D03A69BB6813437F
:100A10003B611A4A3B699360184BDB683B61BB68DA
:100A2000DB433A6913403B613B685B6803F40013A6
:100A3000002B03D03A69BB6813433B610F4A3B6903
:100A4000D3607B6901337B617B690F2B7FF6A4AE9A
:100A500000BF1C37BD4680BC704700BF0038024055
:100A60000000014000000240000402400008024073
:100A7000000C02400010024000140240000401403B
:100A800080B487B000AF7860396000233B610023F9
:100A9000FB600023BB6000237B6182E001227B6955
:100AA00002FA03F33B613A683B691340FB60FA6862
:100AB0003B699A4272D17B681A687B695B000321AB
:100AC00001FA03F3DB431A407B681A607B69DA089A
:100AD0007B69D9087B68083153F821107B6903F0E2
:100AE00007039B000F2000FA03F3DB4319407B68E8
:100AF000083243F822107B689A687B695B00032107
:100B000001FA03F3DB431A407B689A607B685A68FA
:100B100001217B6901FA03F3DB431A407B685A60C9
:100B20007B68DA687B695B00032101FA03F3DB432E
:100B30001A407B68DA607B6903F003039B000F2295
:100B400002FA03F3BB601B487B699B0819497A6969
:100B50009208023251F82210BA68D2430A40023396
:100B600040F823201449144B1A68FB68DB431340F8
:100B70000B601149104B5A68FB68DB4313404B6014
:100B80000D490D4B9A68FB68DB4313408B600A49A3
:100B9000094BDA68FB68DB431340CB607B690133A8
:100BA0007B617B690F2B7FF679AF00BF1C37BD4699
:100BB00080BC7047000001400004014080B485B053
:100BC00000AF78600B467B807B681A697B88134096
:100BD000002B02D00123FB7301E00023FB73FB7B9E
:100BE00018461437BD4680BC704700BF80B483B040
:100BF00000AF78600B467B8013467B707B78002BC0
:100C000003D07A887B689A6103E07B881A047B684A
:100C10009A6100BF0C37BD4680BC704780B483B07A
:100C200000AF78600B467B807B685A697B885A40AE
:100C30007B685A6100BF0C37BD4680BC704700BF5F
:100C400080B485B000AF78600B467B804FF4803372
:100C5000FB607A88FB681343FB60FA687B68DA61A3
:100C60007A887B68DA61FA687B68DA617B68DB69BD
:100C7000FB607B68DB6903F48033002B01D0002329
:100C800000E0012318461437BD4680BC704700BF02
:100C900080B582B000AF0346FB80084B5A69FB88E1
:100CA0001340002B06D0054AFB885361FB88184689
:100CB00000F006F800BF0837BD4680BD00040140C3
:100CC00080B483B000AF0346FB8000BF0C37BD4645
:100CD00080BC7047002103E00B4B5B58435004314C
:100CE0000A480B4B42189A42F6D30A4A02E0002304
:100CF00042F8043B084B9A42F9D300F011F800F097
:100D000087F900F0EDF870476C1100080000002032
:100D100080040020800400209C040020FEE70000E6
:100D200080B400AF154A154B1B6843F48073136001
:100D30001249124B9A68124B13408B600F4A0F4BAB
:100D40001B6823F0885323F0011313600B4A0B4BED
:100D50001B6823F480231360084A084B9B6823F424
:100D60007D039360054B0022DA60064B4FF0006272
:100D70009A6000BFBD4680BC704700BF003802408B
:100D80000CC0FF8800ED00E080B487B000AF002306
:100D90007B6100233B610023FB600023BB600023D9
:100DA0007B60494B9B6803F00C037B617B690C2BD8
:100DB00064D801A252F823F0ED0D00087D0E000862
:100DC0007D0E00087D0E00080D0E00087D0E000847
:100DD0007D0E00087D0E0008150E00087D0E00082F
:100DE0007D0E00087D0E00081D0E0008364B5B6866
:100DF00003F460435B0B7B607B6801334FF400427C
:100E000002FA03F31A46314B1A6047E02F4B304A7F
:100E10001A6043E02D4B2F4A1A603FE02A4B9B6833
:100E200003F470133B61284B9B6803F44003FB60A1
:100E30003B699B0C284AD35CDBB23B61FB689B0D92
:100E40000133FB60204B9B6803F48033BB60BB68BD
:100E5000002B09D13B691E4A02FB03F2FB68B2FB7F
:100E6000F3F31A4A136019E03B691A4A02FB03F2D2
:100E7000FB68B2FBF3F3154A13600FE0124B5B689B
:100E800003F460435B0B7B607B6801334FF40042EB
:100E900002FA03F31A460D4B1A6000BF0A4B9B6817
:100EA00003F0F0031B090D4AD35CDBB27B61074BF7
:100EB0001A687B6922FA03F3044A136000BF1C37E7
:100EC000BD4680BC704700BF0038024000000020D3
:100ED0000024F40000127A0004000020100000201A
:100EE00080B588B000AFFFF7B5F9FFF755F9414A73
:100EF000404BDB6943F00103D3613E4A3D4BDB6964
:100F000043F00203D3613B4A3A4BDB6943F00403ED
:100F1000D3610123BB6080237B600023FB6003233C
:100F20003B613B1D19463448FFF728FC6420FFF75E
:100F300083F9FFF785FA4FF47A70FFF77DF9012006
:100F4000FFF768FBFFF7AAFB01210120FFF7D6FBA3
:100F50000120FFF777FB0120FFF78AFB0023FB61ED
:100F600008E05520FFF748FAAA20FFF745FAFB6989
:100F70000133FB61FB693F2BF3DD0320FFF762FBCD
:100F80000320FFF775FB1D48FFF7E0FB1B48FFF749
:100F9000DDFB1B48FFF7DAFB1948FFF7D7FB012001
:100FA000FFF750FB0520FFF763FB1648FFF7CEFB6A
:100FB0001548FFF7CBFB0120FFF744FB0620FFF7A6
:100FC00057FB1248FFF7C2FB0023BB6107E0642018
:100FD000FFF702F9FFF720F9BB690133BB61BB6979
:100FE000092BF4DD044A044B5B6983F080035361F1
:100FF000EAE700BF00380240000402402000002061
:101000002800002030000020380000204000002090
:1010100070B50F4E0F4D761BB61018BF002405D0CB
:10102000013455F8043B9847A642F9D10A4E0B4DBE
:1010300000F08CF8761BB61018BF002406D00134DF
:1010400055F8043B9847A642F9D170BD70BD00BF6A
:101050007004002070040020780400207004002038
:10106000024B13B1024800F005B8704700000000C1
:1010700081100008002301461A46184600F014B8F3
:1010800038B5074D074C2C1BA41005D0013C55F872
:10109000043D9847002CF9D1BDE8384000F05CB819
:1010A0007C040020780400202DE9F047254C0646FA
:1010B00025688846D5F8484192469946C4B3606889
:1010C0001F2817DC411C76B104EB8003C3F888A00D
:1010D000D4F88851012282401543022EC4F8885169
:1010E000C3F808911ED0831C6160002044F823805F
:1010F000BDE8F087144B03B34FF4C870AFF3008022
:101100000446D0B1D5F84831002784E88800384635
:10111000C5F848410121C4F88871C4F88C71002ECB
:10112000E1D0D1E7D4F88C311A43C4F88C21DAE746
:1011300005F5A674C5F84841C1E74FF0FF30BDE89A
:10114000F08700BF6811000800000000F8B500BF7C
:10115000F8BC08BC9E467047F8B500BFF8BC08BC98
:0C1160009E46704743000000480000203D
:10116C000048E801030406080C10182030000000A9
:10117C00000000000000000001020304060708093B
:10118C003C7EFFFFFFFF7E3C3C4281818181423CE3
:10119C00C0CEF1F1514EE0E0E0C0404040400000D4
:1011AC00F8FF0FF9F90101000000000034030020E2
:1011BC009C0300200404002000000000000000003C
:1011CC000000000000000000000000000000000013
:1011DC000000000000000000000000006411000886
:1011EC0000000000000000000000000000000000F3
:1011FC0000000000000000000000000000000000E3
:10120C0000000000000000000000000000000000D2
:10121C0000000000000000000000000000000000C2
:10122C0000000000000000000000000000000000B2
:10123C0000000000000000000000000000000000A2
:10124C000000000000000000000000000000000092
:10125C0001000000000000000E33CDAB34126DE62F
:10126C00ECDE05000B000000000000000000000098
:10127C000000000000000000000000000000000062
:10128C000000000000000000000000000000000052
:10129C000000000000000000000000000000000042
:1012AC000000000000000000000000000000000032
:1015DC0061100008610100083D01000800000000D6
:0400000508000000EF
:00000001FF
