:020000040800F2
:1000000000280020C10F000809100008091000088E
:10001000091000080910000809100008000000007D
:1000200000000000000000000000000009100008AF
:10003000091000080000000009100008091000085D
:10004000091000080910000809100008091000082C
:10005000091000080910000809100008091000081C
:10006000091000080910000809100008091000080C
:1000700009100008091000080910000809100008FC
:1000800009100008091000080910000809100008EC
:1000900009100008091000080910000809100008DC
:1000A00000000000091000080910000809100008ED
:1000B00029020008091000080910000809100008AA
:1000C00009100008091000080910000809100008AC
:1000D000091000080910000809100008091000089C
:1000E000091000080910000809100008D1020008D2
:1000F00009100008000000000000000000000000DF
:1001000000000000000000000000000000000000EF
:1001100000000000000000000000000000000000DF
:1001200000000000000000000000000000000000CF
:1001300000000000000000005FF808F110B5054C59
:10014000237833B9044B13B10448AFF30080012383
:10015000237010BDA80400200000000090180008C3
:10016000084B10B51BB108490848AFF30080084898
:10017000036803B910BD074B002BFBD0BDE810404E
:10018000184700BF00000000AC04002090180008D1
:10019000A40400200000000080B483B000AF034638
:1001A000FB71084997F907305B09FA7902F01F02E1
:1001B000012000FA02F241F8232000BF0C37BD46AF
:1001C00080BC704700E100E080B500AF154A154BD8
:1001D0005B6A43F0010353624FF080424FF080436B
:1001E0001B6843F0800313604FF080424FF0804360
:1001F000DB6843F00103D3604FF080436422DA628E
:100200004FF0804343F67F629A621C20FFF7C4FFE1
:100210004FF080424FF080431B6843F001031360AE
:1002200000BF80BD0038024080B400AF174A174BB2
:100230005B6983F0800353614FF080424FF080434D
:100240001B6923F001031361114B1B680133104A32
:1002500013600F4B1B680A2B13D10D4B00221A6041
:100260000C4B1B6801330B4A13600A4B1B683B2B7A
:1002700007DD094B1B680133074A1360054B002259
:100280001A6000BFBD4680BC704700BF000402403A
:10029000CC040020C4040020C804002080B400AFB7
:1002A000094A094B5B6A43F010035362074A074B44
:1002B0001B6843F008031360044B0F229A6200BFCF
:1002C000BD4680BC704700BF0038024000100040AF
:1002D00080B400AF00BFBD4680BC704780B483B01F
:1002E00000AF78600C4A7B68D3620B4A0A4B5B69AB
:1002F00043F001035361084B1B69074B00221A614D
:10030000054A054B1B6843F00103136000BF0C371F
:10031000BD4680BC704700BF0010004080B400AFF5
:1003200000BF054B1B6903F00103002BF9D000BF90
:10033000BD4680BC704700BF0010004080B582B051
:1003400000AF78607868FFF7C9FFFFF7E7FF00BFED
:100350000837BD4680BD00BF80B400AF124B0422F9
:100360001A60114A104B1B6843F0010313600E4AD8
:100370000D4B1B6843F0020313600C4A0B4B1B68C8
:1003800043F00103136000BF084B1B6803F0020336
:10039000002BF9D0054A054B9B6843F0010393609D
:1003A00000BFBD4680BC7047003C024000380240A0
:1003B00080B500AF074B04229A610120FFF7BEFF12
:1003C000044B4FF480229A610820FFF7B7FF00BF6B
:1003D00080BD00BF0008024080B483B000AF034678
:1003E000FB71FB7903F00103002B04D0364B4FF473
:1003F00000629A6103E0344B4FF000629A61FB792E
:1004000003F00203002B04D02F4B4FF480629A615B
:1004100003E02D4B4FF080629A61FB7903F00403F7
:10042000002B04D0284B4FF400729A6103E0264B56
:100430004FF000729A61FB7903F00803002B04D09F
:10044000214B4FF480729A6103E01F4B4FF0807292
:100450009A61FB7903F01003002B04D01B4B4FF47F
:1004600000729A6103E0194B4FF000729A61FB79B8
:1004700003F02003002B04D0144B4FF480729A61D8
:1004800003E0124B4FF080729A61FB7903F0400356
:10049000002B03D00D4B80229A6103E00B4B4FF4ED
:1004A00000029A6197F90730002B03DA074B4022CC
:1004B0009A6103E0054B4FF480029A6100BF0C374C
:1004C000BD4680BC704700BF0000024000080240EB
:1004D00080B582B000AF0346FB710120FFF72EFF0D
:1004E000FB791846FFF778FF0120FFF727FFFFF79A
:1004F0005FFF00BF0837BD4680BD00BF80B582B03A
:1005000000AF0346FB710120FFF718FFFB79184687
:10051000FFF762FF0120FFF711FF094B01229A61EB
:100520000120FFF70BFFFFF743FF054B4FF480322D
:100530009A610120FFF702FF00BF0837BD4680BD6A
:100540000008024080B586B000AF0123BB600123E4
:100550007B600023FB6003233B613B1D1946684819
:1005600000F082FA0123BB6002237B600023FB6062
:1005700003233B613B1D1946624800F075FA0123D5
:10058000BB6004237B600023FB6003233B613B1DB6
:1005900019465C4800F068FA0123BB6004237B60C5
:1005A0000023FB6003233B613B1D1946544800F0C8
:1005B0005BFA0123BB6008237B600023FB600323FD
:1005C0003B613B1D19464F4800F04EFA0123BB60CA
:1005D00002237B600023FB6003233B613B1D194624
:1005E000474800F041FA0123BB604FF400637B6091
:1005F0000023FB6003233B613B1D1946414800F08B
:1006000033FA0123BB604FF480637B600023FB60FF
:1006100003233B613B1D19463A4800F025FA0123AC
:10062000BB604FF400737B600023FB6003233B61DE
:100630003B1D1946334800F017FA0123BB604FF405
:1006400080737B600023FB6003233B613B1D1946E5
:100650002C4800F009FA0123BB604FF400737B6063
:100660000023FB6003233B613B1D1946244800F037
:10067000FBF90123BB604FF480737B600023FB60B8
:1006800003233B613B1D19461D4800F0EDF9012392
:10069000BB6080237B600023FB6003233B613B1D29
:1006A0001946174800F0E0F90123BB6040237B6046
:1006B0000023FB6003233B613B1D1946104800F0FB
:1006C000D3F90F4B4FF400329A610D4B4FF4803247
:1006D0009A610C4B08229A610C20FFF72FFE094B00
:1006E0004FF400229A610220FFF728FE054B0822F2
:1006F0009A610C20FFF722FE00BF1837BD4680BD6F
:10070000000802400000024080B582B000AF0346FE
:10071000FB710121012000F08FF8FB7943F03E03CB
:10072000DBB21846FFF7D4FE0021002000F084F869
:1007300000BF0837BD4680BD80B582B000AF03461C
:10074000FB71FB7943F04003DBB21846FFF744FE30
:100750000120FFF7F3FDFFF72BFE00BF0837BD4672
:1007600080BD00BF80B582B000AF0346FB71FB794E
:1007700063F04703DBB21846FFF72EFE0120FFF7B8
:10078000DDFDFFF715FE00BF0837BD4680BD00BF89
:1007900080B582B000AF03460A46FB711346BB71B9
:1007A000FB793F2B07D9FB79403BFB7101210020EE
:1007B00000F042F803E00021012000F03DF8FB7951
:1007C0001846FFF7B9FFBB791846FFF7CBFF00BF0C
:1007D0000837BD4680BD00BF80B582B000AF0121A3
:1007E000012000F029F80023FB711AE0FB79483B57
:1007F000DBB21846FFF76CFE0023BB710BE0BB7940
:100800004033DBB21846FFF763FE0020FFF776FEA9
:10081000BB790133BB71BB793F2BF0D9FB79013335
:10082000FB71FB79072BE1D90021002000F004F8CF
:1008300000BF0837BD4680BD80B483B000AF03461B
:100840000A46FB711346BB71FB79002B03D00C4B9E
:1008500002229A6103E00A4B4FF400329A61BB799D
:10086000002B03D0064B04229A6103E0044B4FF4A3
:1008700080229A6100BF0C37BD4680BC704700BF24
:100880000000024080B584B000AF78600023FB60B8
:1008900009E0FB687A6813441B781846FFF72EFEC0
:1008A000FB680133FB60FB68072BF2DD00BF1037EC
:1008B000BD4680BD80B584B000AF03463A60FB7191
:1008C0000B46BB71BA79FB7911461846FFF760FFFA
:1008D0000023FB6022E0FA79FB681344BB60BB682D
:1008E000402B07D1BB68DBB2BA7911461846FFF737
:1008F0004FFF09E0BB68802B06D1BB790133DBB227
:1009000019460020FFF744FFFB683A6813441B7840
:100910001846FFF7F3FDFB680133FB60FB68042B0F
:10092000D9DD00BF1037BD4680BD00BF80B584B0A3
:1009300000AF03463A60FB710B46BB710023FB60BE
:100940002AE0FB683A6813441B78FB72FB7A8F2B12
:1009500003D8FB7A203BFB7202E0FB7A603BFB7220
:10096000FB79782B04D90023FB71BB790133BB7170
:10097000FA7A13469B0013440C4A1A44B979FB795E
:100980001846FFF797FF0020FFF7B8FDFB79073304
:10099000FB71FB680133FB60FB683A6813441B780A
:1009A000002BCED100BF1037BD4680BD30150008EA
:1009B00080B584B000AF0346FB710B46BB71134694
:1009C0007B717B79264AA2FB03235B09DBB23B7276
:1009D0007A793B7A19466FF0630303FB01F3134402
:1009E000204A82FB03129210DB17D31ADBB27B7210
:1009F0003B7A1A4692001A44D200D31A9B00DAB20C
:100A00007B7A19464901C91A8900CB1A5B00DBB20F
:100A10001344DAB27B791344DBB2BB720023FB6070
:100A20000FE007F10802FB6813441B783033D9B29A
:100A300007F10802FB6813440A461A70FB68013389
:100A4000FB60FB68022BECDD07F10802B979FB794A
:100A50001846FFF76BFF00BF1037BD4680BD00BFD3
:100A60001F85EB516766666680B487B000AF78601B
:100A700039600023FB600023BB6000233B6100233F
:100A80007B6157E101227B6902FA03F3FB603B685B
:100A90001A68FB681340BB60BA68FB689A4240F072
:100AA00046813B685B68022B03D03B685B68122B76
:100AB00023D17B69DA087B68083253F822303B6126
:100AC0007B6903F007039B000F2202FA03F3DB4369
:100AD0003A6913403B613B681A697B6903F007037D
:100AE0009B0002FA03F33A6913433B617B69DA081E
:100AF0007B680832396943F822107B681B683B61C8
:100B00007B695B00032202FA03F3DB433A6913407B
:100B10003B613B685B6803F003027B695B0002FAA0
:100B200003F33A6913433B617B683A691A603B6897
:100B30005B68012B0BD03B685B68022B07D03B68DE
:100B40005B68112B03D03B685B68122B30D17B684C
:100B50009B683B617B695B00032202FA03F3DB4382
:100B60003A6913403B613B68DA687B695B0002FAD3
:100B700003F33A6913433B617B683A699A607B6887
:100B80005B683B6101227B6902FA03F3DB433A694C
:100B900013403B613B685B681B0903F001027B6902
:100BA00002FA03F33A6913433B617B683A695A607E
:100BB0007B68DB683B617B695B00032202FA03F31D
:100BC000DB433A6913403B613B689A687B695B0091
:100BD00002FA03F33A6913433B617B683A69DA60CE
:100BE0003B685B6803F08053002B00F0A080564AFE
:100BF000554B1B6A43F001031362544A7B699B08FF
:100C0000023352F823303B617B6903F003039B00FE
:100C10000F2202FA03F3DB433A6913403B617B681E
:100C20004B4A93421FD07B684A4A934219D07B6853
:100C3000494A934213D07B68484A93420DD07B685F
:100C4000474A934207D07B68464A934201D1072323
:100C50000AE0082308E0042306E0032304E002235B
:100C600002E0012300E000237A6902F0030292000F
:100C700093403A6913433B6134497B699B080233D3
:100C80003A6941F82320384B1B683B61BB68DB4362
:100C90003A6913403B613B685B6803F48033002B87
:100CA00003D03A69BB6813433B612F4A3B69136029
:100CB0002D4B5B683B61BB68DB433A6913403B618A
:100CC0003B685B6803F40033002B03D03A69BB68D0
:100CD00013433B61244A3B695360234B9B683B6150
:100CE000BB68DB433A6913403B613B685B6803F4D4
:100CF0008013002B03D03A69BB6813433B611A4A47
:100D00003B699360184BDB683B61BB68DB433A6926
:100D100013403B613B685B6803F40013002B03D076
:100D20003A69BB6813433B610F4A3B69D3607B69F7
:100D300001337B617B690F2B7FF6A4AE00BF1C37AC
:100D4000BD4680BC704700BF003802400000014033
:100D5000000002400004024000080240000C024073
:100D600000100240001402400004014080B487B02B
:100D700000AF7860396000233B610023FB600023F3
:100D8000BB6000237B6182E001227B6902FA03F3EE
:100D90003B613A683B691340FB60FA683B699A42E1
:100DA00072D17B681A687B695B00032101FA03F347
:100DB000DB431A407B681A607B69DA087B69D908D3
:100DC0007B68083153F821107B6903F007039B000F
:100DD0000F2000FA03F3DB4319407B68083243F825
:100DE00022107B689A687B695B00032101FA03F398
:100DF000DB431A407B689A607B685A6801217B69F3
:100E000001FA03F3DB431A407B685A607B68DA68B7
:100E10007B695B00032101FA03F3DB431A407B6823
:100E2000DA607B6903F003039B000F2202FA03F3ED
:100E3000BB601B487B699B0819497A69920802329A
:100E400051F82210BA68D2430A40023340F82320F6
:100E50001449144B1A68FB68DB4313400B601149BB
:100E6000104B5A68FB68DB4313404B600D490D4B38
:100E70009A68FB68DB4313408B600A49094BDA68C8
:100E8000FB68DB431340CB607B6901337B617B698B
:100E90000F2B7FF679AF00BF1C37BD4680BC704773
:100EA000000001400004014080B485B000AF7860CC
:100EB0000B467B807B681A697B881340002B02D02D
:100EC0000123FB7301E00023FB73FB7B18461437FF
:100ED000BD4680BC704700BF80B483B000AF78606F
:100EE0000B467B8013467B707B78002B03D07A887F
:100EF0007B689A6103E07B881A047B689A6100BF73
:100F00000C37BD4680BC704780B483B000AF7860BA
:100F10000B467B807B685A697B885A407B685A61A4
:100F200000BF0C37BD4680BC704700BF80B485B0A1
:100F300000AF78600B467B804FF48033FB607A888B
:100F4000FB681343FB60FA687B68DA617A887B6828
:100F5000DA61FA687B68DA617B68DB69FB607B6871
:100F6000DB6903F48033002B01D0002300E0012370
:100F700018461437BD4680BC704700BF80B582B0AC
:100F800000AF0346FB80084B5A69FB881340002BD7
:100F900006D0054AFB885361FB88184600F006F826
:100FA00000BF0837BD4680BD0004014080B483B057
:100FB00000AF0346FB8000BF0C37BD4680BC7047C6
:100FC000002103E00B4B5B58435004310A480B4BA4
:100FD00042189A42F6D30A4A02E0002342F8043B40
:100FE000084B9A42F9D300F011F800F0F7F900F03D
:100FF000EDF870479018000800000020A8040020B9
:10100000A8040020D0040020FEE7000080B400AF58
:10101000154A154B1B6843F4807313601249124B39
:101020009A68124B13408B600F4A0F4B1B6823F0DA
:10103000885323F0011313600B4A0B4B1B6823F4F6
:1010400080231360084A084B9B6823F47D03936058
:10105000054B0022DA60064B4FF000629A6000BF39
:10106000BD4680BC704700BF003802400CC0FF88FE
:1010700000ED00E080B487B000AF00237B61002367
:101080003B610023FB600023BB6000237B60494B76
:101090009B6803F00C037B617B690C2B64D801A275
:1010A00052F823F0D91000086911000869110008EE
:1010B00069110008F9100008691100086911000899
:1010C0006911000801110008691100086911000880
:1010D0006911000809110008364B5B6803F460438E
:1010E0005B0B7B607B6801334FF4004202FA03F331
:1010F0001A46314B1A6047E02F4B304A1A6043E0E2
:101100002D4B2F4A1A603FE02A4B9B6803F4701363
:101110003B61284B9B6803F44003FB603B699B0CDD
:10112000284AD35CDBB23B61FB689B0D0133FB605B
:10113000204B9B6803F48033BB60BB68002B09D154
:101140003B691E4A02FB03F2FB68B2FBF3F31A4A47
:10115000136019E03B691A4A02FB03F2FB68B2FB19
:10116000F3F3154A13600FE0124B5B6803F460431E
:101170005B0B7B607B6801334FF4004202FA03F3A0
:101180001A460D4B1A6000BF0A4B9B6803F0F00330
:101190001B090D4AD35CDBB27B61074B1A687B6984
:1011A00022FA03F3044A136000BF1C37BD4680BC1B
:1011B000704700BF00380240000000200024F40007
:1011C00000127A00040000201000002080B582B0D8
:1011D00000AFFFF7C1F8FFF761F8FEF7F5FF00F089
:1011E000E3F800F041F86420FFF7A8F8FFF7AAF948
:1011F0004FF47A70FFF7A2F80120FFF785FAFFF7A6
:10120000EBFA00210120FFF717FB0423FB71144ABE
:1012100000210020FFF78AFB892201213220FFF7FD
:10122000C7FB104A02210020FFF780FB00F070F896
:1012300003463B713B79FF2B0BD0FB79042B05D187
:101240003B1D1A4605210120FFF770FB0023FB71AF
:10125000DDE7FB79032BDAD8FB790133FB71D6E7A5
:10126000501800086C18000880B586B000AF002345
:101270007B6122E001237B60234A7B69DB0013440E
:101280009B883B600023BB600323FB601E4A7B6995
:1012900052F833303A4611461846FFF7E5FB1A4A32
:1012A0007B6952F8332018497B69DB000B449B882B
:1012B0001B0493617B6901337B617B69032BD9DD5F
:1012C00000237B6119E000233B6100237B60022344
:1012D000BB600E4A7B69DB0013449B883B600323A1
:1012E000FB600A4A7B6952F833303A461146184689
:1012F000FFF7BAFB7B6901337B617B69032BE2DD7E
:1013000000BF1837BD4680BD2000002040000020EF
:1013100080B483B000AF00237B6035E01F4A7B6858
:1013200052F833201D497B68DB000B449B88936196
:1013300000233B6017E01A4A3B6852F833301A69C1
:1013400017493B68DB000B449B881340002B07D0F8
:10135000144A7B689B001A443B6813441B7817E0CF
:101360003B6801333B603B68032BE4DD0B4A7B6841
:1013700052F8332009497B68DB000B449B881B042F
:1013800093617B6801337B607B68032BC6DDFF23A1
:1013900018460C37BD4680BC704700BF20000020B7
:1013A000400000206000002080B400AF0A4A0A4BD1
:1013B000DB6943F00103D361074A074BDB6943F064
:1013C0000203D361044A044BDB6943F00403D36195
:1013D00000BFBD4680BC70470038024070B50F4E5C
:1013E0000F4D761BB61018BF002405D0013455F8F8
:1013F000043B9847A642F9D10A4E0B4D00F08CF8F9
:10140000761BB61018BF002406D0013455F8043BF3
:101410009847A642F9D170BD70BD00BF9804002066
:1014200098040020A004002098040020024B13B16F
:10143000024800F005B87047000000004D14000895
:10144000002301461A46184600F014B838B5074D77
:10145000074C2C1BA41005D0013C55F8043D9847BF
:10146000002CF9D1BDE8384000F05CB8A40400209D
:10147000A00400202DE9F047254C06462568884643
:10148000D5F8484192469946C4B360681F2817DCD6
:10149000411C76B104EB8003C3F888A0D4F88851CE
:1014A000012282401543022EC4F88851C3F80891E6
:1014B0001ED0831C6160002044F82380BDE8F087C3
:1014C000144B03B34FF4C870AFF300800446D0B19F
:1014D000D5F84831002784E888003846C5F84841E7
:1014E0000121C4F88871C4F88C71002EE1D0D1E7D5
:1014F000D4F88C311A43C4F88C21DAE705F5A674C8
:10150000C5F84841C1E74FF0FF30BDE8F08700BFA4
:101510008C18000800000000F8B500BFF8BC08BC3B
:101520009E467047F8B500BFF8BC08BC9E467047A1
:10153000000000000000004F00000007000700143A
:101540007F147F14242A7F2A1223130864623649E9
:101550005522400005030000001C224100004122EA
:101560001C0014083E081408083E0808005030000B
:101570000008080808080060600000201008040245
:101580003E5149453E00427F40004261514946215B
:1015900041454B311814127F1027454545393C4AC7
:1015A0004949300171090503364949493606494917
:1015B000291E00363600000056360000081422416D
:1015C00000141414141400412214080201510906D5
:1015D000324971413E7E1111117E7F494949363EA3
:1015E000414141227F4141221C7F494949417F09B4
:1015F0000909013E4149493A7F0808087F00417FB7
:1016000041002040413F017F081422417F4040407B
:10161000407F020C027F7F0408107F3E4141413E23
:101620007F090909063E4151215E7F091929464675
:101630004949493101017F01013F4040403F1F209E
:1016400040201F3F4070403F631408146307087038
:1016500008076151494543007F41410002040810D9
:10166000200041417F00040201020440404040400C
:10167000000102040020545454787F484444383810
:1016800044444420384444487F3854545418087E15
:101690000901020C5252523E7F0804047800447D36
:1016A00040002040443D007F1028440000417F401E
:1016B000007C041804787C080404783844444438D6
:1016C0007C14141408081414187C7C0804040848BA
:1016D00054545420043F4440203C4040207C1C2073
:1016E00040201C3C4030403C44281028440C5050C2
:1016F000503C4464544C44000836410000007F00D4
:101700000000413608000201020201000000000052
:101710007E1111117E7F494949337F494949367FFE
:1017200001010103E0514F41FF7F494949417708D9
:101730007F087741494949367F1008047F7C211290
:10174000097C7F0814224120413F017F7F020C0267
:101750007F7F0808087F3E4141413E7F0101017FB4
:101760007F090909063E4141412201017F010147EC
:10177000281008071C227F221C63140814637F4072
:101780004040FF070808087F7F407F407F7F407F01
:1017900040FF017F4848307F4830007F007F484845
:1017A00030224149493E7F083E413E462919097F82
:1017B00020545454783C4A4A49317C545428007C83
:1017C0000404040CE0544C44FC38545454186C1079
:1017D0007C106C44445454287C2010087C7C4122AA
:1017E000117C7C1028440020443C047C7C081008B8
:1017F0007C7C1010107C38444444387C0404047C05
:101800007C14141408384444440004047C04040C7C
:101810005050503C3048FC483044281028447C400C
:101820004040FC0C1010107C7C407C407C7C407C58
:1018300040FC047C5050207C5050207C7C50502038
:101840000028445454387C10384438085434147CEC
:10185000C2E2E5E4E8F2E520EDEEECE5F020F1EFA0
:10186000EEF0F1F2ECE5EDE03A200000C2FB20EDF5
:10187000E0F5EEE4E8F2E5F1FC20EDE0203320F0C5
:10188000F3E1E5E6E5000000430000007000002001
:101890000048E801030406080C101820300000007E
:1018A0000000000000000000010203040607080910
:1018B000000002402000000000040240040000007C
:1018C0000004024000040000000402400008000080
:1018D000000402400010000000040240002000004C
:1018E00000040240004000000004024000800000AC
:1018F0003132334134353642373839432A30234484
:10190000000000005C030020C40300202C04002021
:1019100000000000000000000000000000000000C7
:1019200000000000000000000000000000000000B7
:1019300000000000881800080000000000000000FF
:101940000000000000000000000000000000000097
:101950000000000000000000000000000000000087
:101960000000000000000000000000000000000077
:101970000000000000000000000000000000000067
:101980000000000000000000000000000000000057
:101990000000000000000000000000000000000047
:1019A0000000000000000000010000000000000036
:1019B0000E33CDAB34126DE6ECDE05000B000000FB
:1019C0000000000000000000000000000000000017
:1019D0000000000000000000000000000000000007
:1019E00000000000000000000000000000000000F7
:1019F00000000000000000000000000000000000E7
:101D200000000000000000002D1400086101000800
:081D30003D0100080000000065
:0400000508000000EF
:00000001FF
